:100000000C9435000C945D000C945D000C945D0024
:100010000C945D000C945D000C945D000C945D00EC
:100020000C945D000C945D000C945D000C945D00DC
:100030000C945D000C945D000C949B050C945D0089
:100040000C94F9040C945D000C9469050C94430520
:100050000C945D000C945D000C945D000C945D00AC
:100060000C945D000C945D00C50511241FBECFEFFC
:10007000D8E0DEBFCDBF11E0A0E0B1E0E0EFF2E1FB
:1000800002C005900D92AE34B107D9F722E0AEE47C
:10009000B1E001C01D92A038B207E1F710E0C5E35E
:1000A000D0E004C02197FE010E943407C433D10779
:1000B000C9F70E94F8050C9476090C940000E9E554
:1000C000F1E0A089B18982E08C93A485B5851C926A
:1000D000A685B78580E18C93108EA489B58986E0CA
:1000E0008C93A289B3898C9180618C93A289B38906
:1000F0008C9188608C93A289B3898C9180688C9351
:100100000288F389E02D80818F7D808308953FB739
:10011000F8948091550190915601A0915701B091AA
:10012000580126B5A89B05C02F3F19F00196A11DC7
:10013000B11D3FBFBA2FA92F982F8827BC01CD0131
:10014000620F711D811D911D42E0660F771F881F90
:10015000991F4A95D1F70895AF92BF92CF92DF923F
:10016000EF92FF920F931F93CF93DF936C017B016C
:100170008B01040F151FEB015E01AE18BF08C017FD
:10018000D10759F06991D601ED91FC910190F08170
:10019000E02DC6010995892B79F7C501DF91CF9133
:1001A0001F910F91FF90EF90DF90CF90BF90AF9095
:1001B0000895FC01538D448D252F30E0842F90E06D
:1001C000821B930B541710F0CF9608950197089552
:1001D000FC01918D828D981761F0A28DAE0FBF2F1B
:1001E000B11D5D968C91928D9F5F9F73928F90E071
:1001F00008958FEF9FEF0895FC01918D828D9817E0
:1002000031F0828DE80FF11D858D90E008958FEF1C
:100210009FEF0895FC01918D228D892F90E0805CE5
:100220009F4F821B91098F739927089589E591E06B
:100230000E940A0121E0892B09F420E0822F089511
:1002400080E090E0892B29F00E94160181110C9426
:1002500000000895FC01A48DA80FB92FB11DA35A69
:10026000BF4F2C91848D90E001968F739927848FD6
:10027000A689B7892C93A089B1898C9183708064F9
:100280008C93938D848D981306C00288F389E02D9A
:1002900080818F7D80830895EF92FF920F931F934B
:1002A000CF93DF93EC0181E0888F9B8D8C8D981329
:1002B0001AC0E889F989808185FF15C09FB7F89435
:1002C000EE89FF896083E889F98980818370806481
:1002D00080839FBF81E090E0DF91CF911F910F91CC
:1002E000FF90EF900895F62E0B8D10E00F5F1F4FDB
:1002F0000F731127E02E8C8D8E110CC00FB607FCEA
:10030000FACFE889F989808185FFF5CFCE010E9477
:100310002A01F1CFEB8DEC0FFD2FF11DE35AFF4FBA
:10032000F0829FB7F8940B8FEA89FB898081806205
:10033000CFCF682F89E591E00C944C01CF93DF93E8
:10034000EC01888D8823B9F0AA89BB89E889F989ED
:100350008C9185FD03C0808186FD0DC00FB607FC22
:10036000F7CF8C9185FFF2CF808185FFEDCFCE0155
:100370000E942A01E9CFDF91CF910895DC01ED9130
:10038000FC910190F081E02D09942F923F924F92C1
:100390005F926F927F928F929F92AF92BF92CF9215
:1003A000DF92EF92FF920F931F93CF93DF93EC01B5
:1003B000FC01E857FF4F80819181009711F00E9466
:1003C000C5018E01085B1F4F3E012AE4620E711CBD
:1003D0001E0137E8230E311CFBE84F2E55245394A1
:1003E0008C819D81DC01ED91FC910084F185E02DF3
:1003F0000995181619060CF0C0C12FB7F894809112
:10040000510190915201A0915301B09154012FBF1D
:100410004E815F81688579856C017D01C41AD50A9A
:10042000E60AF70AB701A6014330510561057105D7
:1004300008F01B828E839F83A887B9878C819D815A
:10044000DC01ED91FC910284F385E02D0995282FC4
:100450003B81313009F449C0A0F1323009F45BC06E
:10046000333009F0BDCFD3012C91982F8827820F0C
:10047000911DF801208131812817390701F52A855E
:10048000F22FFF709F2E203409F049C0DE0121E0D9
:10049000E22FE695F0E07696EE0FFF1FEC0FFD1FC2
:1004A0001C969C911C971B968C911B979183808323
:1004B0002E5F12962D3161F78A818F5F8A83B4E0B7
:1004C00028C03CEF380F3D3160F41AA623502BA70B
:1004D000992780959095F80191838083F1E0FB83C3
:1004E0007FCFE4E0CE2ECB827BCFEAA541E04E0F5A
:1004F0004AA7EC0FFD2FF11D8287D8012D913C9169
:100500001197281B31092D933C938BA5B2E048131A
:1005100067CFBB8365CFF3018083F3E0E0CFD101E8
:100520008C918F1760F2FF2351F28BA5813039F641
:100530008C819D81EF2EF12C5701B1E0AB1AB108EF
:10054000F2013197F1F7207F203999F1203A09F42F
:1005500071C0203809F0B3CF28812F5F288364E071
:1005600070E00E94BE01B70160587F4F8C819D8171
:100570000E94BE01E4E8EE0EF11CE094F094D80174
:10058000ED92FC928C819D81DC01ED91FC910190BA
:10059000F081E02DD8016C9109958C819D81F80145
:1005A0006181DC01ED91FC910190F081E02D0995D4
:1005B00086CF66E070E00E94BE01B70160577F4FB2
:1005C0008C819D810E94BE018C819D81B6E0BA9D87
:1005D0006001BB9DD00C1124CC0EDD1E5601EBE456
:1005E000AE0EB11CDC01ED91FC910190F081E02D8B
:1005F000D5016C9109958C819D81BCE4CB0ED11CF9
:10060000DC01ED91FC910190F081E02DD6016C911F
:100610000995B6E9EB0EF11CF5018081E80EF11C9D
:10062000D6018C91E80EF11CE094F094F801F1826F
:10063000E082A8CF29812F5F2983F6E0FA9D70011F
:10064000FB9DF00C1124EC0EFD1E67012CE4C20E84
:10065000D11CD6012C9144E0B42EB20EDC01ED91F8
:10066000FC910190F081E02D6B2D09958B2D90E090
:1006700080959095F801918380838C819D81F0EA2B
:100680009F0EDC01ED91FC910190F081E02D692D30
:100690000995F8018081918189199109918380835D
:1006A0008C819D81FDE4EF0EF11CD701BC90DC0133
:1006B000ED91FC910190F081E02D6B2D0995F801F1
:1006C000808191818B199109918380838C819D8197
:1006D000D7018D909D90AD90BC90892C9A2CAB2C1D
:1006E000BB24A7FCBA94DC01ED91FC910190F08150
:1006F000E02D682D0995F801808191818819910973
:1007000091838083D6018C91843009F03BCF8C811A
:100710009D81F70180809180A280B3804501BB2438
:1007200097FCB094AB2CDC01ED91FC910190F08131
:10073000E02D682D0995F801808191818819910932
:10074000918380838C819D81D701CD90DD90ED9048
:10075000FC90CF2CDD24EE24FF24DC01ED91FC91F4
:100760000190F081E02D6C2D0995F8018081918137
:100770008C199D099183808305CFDF91CF911F91C3
:100780000F91FF90EF90DF90CF90BF90AF909F9030
:100790008F907F906F905F904F903F902F90089533
:1007A000FC0101900020E9F73197AF01481B590B7C
:1007B000BC0189E591E00C94AC008F929F92AF92BE
:1007C000BF920F931F93CF93DF93CDB7DEB7A1975F
:1007D0000FB6F894DEBF0FBECDBF19A2423008F4A9
:1007E0004AE08E010F5D1F4F842E912CB12CA12C5D
:1007F000A50194010E941207E62FB901CA01EA304F
:10080000F4F4E05DD801EE938D01232B242B252BEE
:1008100079F790E080E0109719F0CD010E94D003A5
:10082000A1960FB6F894DEBF0FBECDBFDF91CF917A
:100830001F910F91BF90AF909F908F900895E95CAA
:10084000E1CF4F925F926F927F928F929F92AF9281
:10085000BF92CF92DF92EF92FF920F931F93CF93AD
:100860006B017C01742EAC019B010E9471098823ED
:1008700099F082E191E0CF911F910F91FF90EF905D
:10088000DF90CF90BF90AF909F908F907F906F90B0
:100890005F904F900C94D00346015701E894B7F84D
:1008A0002FEF3FEF4FE75FE7C501B4010E947109E9
:1008B00081110DC02FEF3FEF4FE75FE7C501B40196
:1008C0000E94A70718161CF486E191E0D4CF2FEF01
:1008D0003FEF4FE75FE4C701B6010E94FF0818161B
:1008E0001CF48AE191E0C7CF2FEF3FEF4FE75FECB9
:1008F000C701B6010E94A70787FDF3CF20E030E0D3
:10090000A901C701B6010E94A70710E000E087FF18
:1009100008C08DE20E9499018C01F7FAF094F7F873
:10092000F094C0E060E070E080E09FE37C1641F06E
:1009300020E030E040E251E40E94AC07CF5FF6CF08
:10094000A70196010E943B072B013C010E941E0853
:100950004B015C014AE00E94DD037C01E00EF11EC8
:10096000CC23B1F1C501B4010E944D089B01AC013B
:10097000C301B2010E943A074B015C018EE20E9462
:100980009901E80EF91EC15018F120E030E040E274
:1009900051E4C501B4010E9404092B013C010E94ED
:1009A0001E084B01B12CA12C4AE0C501B4010E94E4
:1009B000DD03E80EF91EC501B4010E944D089B013C
:1009C000AC01C301B2010E943A074B015C01DBCFCD
:1009D000C701CF911F910F91FF90EF90DF90CF90C3
:1009E000BF90AF909F908F907F906F905F904F904F
:1009F00008951F920F920FB60F9211242F933F93D9
:100A00008F939F93AF93BF93809151019091520127
:100A1000A0915301B09154013091500123E0230F74
:100A20002D3758F50196A11DB11D209350018093DB
:100A3000510190935201A0935301B09354018091BE
:100A4000550190915601A0915701B091580101961E
:100A5000A11DB11D8093550190935601A09357019C
:100A6000B0935801BF91AF919F918F913F912F917A
:100A70000F900FBE0F901F90189526E8230F029637
:100A8000A11DB11DD2CF1F920F920FB60F9211244C
:100A90002F933F934F935F936F937F938F939F9386
:100AA000AF93BF93EF93FF9389E591E00E942A01F2
:100AB000FF91EF91BF91AF919F918F917F916F9136
:100AC0005F914F913F912F910F900FBE0F901F900C
:100AD00018951F920F920FB60F9211242F938F9398
:100AE0009F93EF93FF93E0916901F0916A018081F8
:100AF000E0916F01F091700182FD1BC090818091A7
:100B000072018F5F8F7320917301821741F0E09122
:100B10007201F0E0E75AFE4F958F80937201FF91CA
:100B2000EF919F918F912F910F900FBE0F901F907B
:100B300018958081F4CF1F920F920FB60F92112457
:100B40002F933F934F935F936F937F938F939F93D5
:100B5000AF93BF93EF93FF9380914E0190914F011C
:100B6000009711F00E94C501FF91EF91BF91AF91E5
:100B70009F918F917F916F915F914F913F912F91B5
:100B80000F900FBE0F901F901895E9E5F1E01382CA
:100B9000128288EE93E0A0E0B0E084839583A68380
:100BA000B78384E091E09183808385EC90E0958722
:100BB000848784EC90E09787868780EC90E0918B27
:100BC000808B81EC90E0938B828B82EC90E0958B14
:100BD000848B86EC90E0978B868B118E128E138E11
:100BE000148E10927D0210927F0210927E02089560
:100BF000789484B5826084BD84B5816084BD85B5F8
:100C0000826085BD85B5816085BD80916E00816003
:100C100080936E00109281008091810082608093A9
:100C200081008091810081608093810080918000AB
:100C30008160809380008091B10084608093B100D6
:100C40008091B00081608093B00080917A008460D0
:100C500080937A0080917A00826080937A008091FC
:100C60007A00816080937A0080917A008068809316
:100C70007A001092C1000E945F000E945F0089E527
:100C800091E09093FB018093FA0184E08093F90155
:100C90002FB7F8948091510190915201A091530186
:100CA000B09154012FBF8093FC019093FD01A0935C
:100CB000FE01B093FF0110922002109221021092C7
:100CC0003F0210923E021092400280914E0190919C
:100CD0004F0190937F0280937E02892B39F48FEA33
:100CE00087BD80916E00826080936E0086EF91E0F8
:100CF00090934F0180934E018EE191E00E94D003CA
:100D00008DE291E00E94D003C0E0D0E080E391E06A
:100D10000E94D0036091220270912302072E000CE2
:100D2000880B990B0E944F0820E030E04AEF53E413
:100D30000E94AC0720E030E040E450E40E943A0713
:100D400042E00E94210489E00E9499018BE391E036
:100D50000E94D0036091240270912502072E000C9E
:100D6000880B990B0E944F0820E030E04AEF53E4D3
:100D70000E94AC0720E030E040E450E40E943A07D3
:100D800042E00E94210489E00E94990186E491E0FA
:100D90000E94D0036091260270912702605D774027
:100DA000072E000C880B990B0E944F0820E030E0C2
:100DB00048EC52EC0E94AC0742E00E9421048DE214
:100DC00091E00E94D0030E9487004B015C0188ECF7
:100DD000C82ED12CE12CF12C0E94870068197909CA
:100DE0008A099B09683E734081059105A8F321E0BB
:100DF000C21AD108E108F10888EE880E83E0981E37
:100E0000A11CB11CC114D104E104F10429F72097FD
:100E100009F47CCF0E941601882309F477CF0E9441
:100E2000000074CFA1E21A2EAA1BBB1BFD010DC04E
:100E3000AA1FBB1FEE1FFF1FA217B307E407F5078A
:100E400020F0A21BB30BE40BF50B661F771F881F66
:100E5000991F1A9469F760957095809590959B01FC
:100E6000AC01BD01CF010895EE0FFF1F0590F49175
:100E7000E02D09945058BB27AA270E9452070C94D2
:100E8000C5080E94B70838F00E94BE0820F039F467
:100E90009F3F19F426F40C94B4080EF4E095E7FB98
:100EA0000C94AE08E92F0E94D60858F3BA176207CF
:100EB00073078407950720F079F4A6F50C94F808D9
:100EC0000EF4E0950B2EBA2FA02D0B01B901900165
:100ED0000C01CA01A0011124FF27591B99F0593FA9
:100EE00050F4503E68F11A16F040A22F232F342FF1
:100EF0004427585FF3CF469537952795A795F0403F
:100F00005395C9F77EF41F16BA0B620B730B840B53
:100F1000BAF09150A1F0FF0FBB1F661F771F881F0B
:100F2000C2F70EC0BA0F621F731F841F48F4879563
:100F300077956795B795F7959E3F08F0B0CF939555
:100F4000880F08F09927EE0F9795879508950E94CE
:100F50008A0808F481E008950E94C0070C94C5082F
:100F60000E94BE0858F00E94B70840F029F45F3F85
:100F700029F00C94AE0851110C94F9080C94B408A3
:100F80000E94D60868F39923B1F3552391F3951B7A
:100F9000550BBB27AA2762177307840738F09F5F9A
:100FA0005F4F220F331F441FAA1FA9F335D00E2E07
:100FB0003AF0E0E832D091505040E695001CCAF774
:100FC0002BD0FE2F29D0660F771F881FBB1F261737
:100FD00037074807AB07B0E809F0BB0B802DBF010E
:100FE000FF2793585F4F3AF09E3F510578F00C94DD
:100FF000AE080C94F9085F3FE4F3983ED4F386956D
:1010000077956795B795F7959F5FC9F7880F911DFD
:101010009695879597F90895E1E0660F771F881FE9
:10102000BB1F621773078407BA0720F0621B730B9C
:10103000840BBA0BEE1F88F7E09508950E94DE0836
:1010400088F09F5798F0B92F9927B751B0F0E1F089
:10105000660F771F881F991F1AF0BA95C9F714C039
:10106000B13091F00E94F808B1E008950C94F808AE
:10107000672F782F8827B85F39F0B93FCCF3869572
:1010800077956795B395D9F73EF4909580957095CF
:1010900061957F4F8F4F9F4F0895E89409C097FB4C
:1010A0003EF490958095709561957F4F8F4F9F4F3F
:1010B0009923A9F0F92F96E9BB279395F695879583
:1010C00077956795B795F111F8CFFAF4BB0F11F446
:1010D00060FF1BC06F5F7F4F8F4F9F4F16C08823ED
:1010E00011F096E911C0772321F09EE8872F762F23
:1010F00005C0662371F096E8862F70E060E02AF064
:101100009A95660F771F881FDAF7880F969587954F
:1011100097F90895990F0008550FAA0BE0E8FEEF24
:1011200016161706E807F907C0F012161306E407AB
:10113000F50798F0621B730B840B950B39F40A26A4
:1011400061F0232B242B252B21F408950A2609F482
:10115000A140A6958FEF811D811D089597F99F6786
:1011600080E870E060E008959FEF80EC089500242F
:101170000A941616170618060906089500240A94FC
:1011800012161306140605060895092E0394000C82
:1011900011F4882352F0BB0F40F4BF2B11F460FF11
:1011A00004C06F5F7F4F8F4F9F4F089557FD90583A
:1011B000440F551F59F05F3F71F04795880F97FB1B
:1011C000991F61F09F3F79F08795089512161306D5
:1011D0001406551FF2CF4695F1DF08C01616170604
:1011E0001806991FF1CF8695710561050894089539
:1011F000E894BB2766277727CB0197F908950E94CB
:101200008A0808F48FEF08950E9417090C94C50806
:101210000E94B70838F00E94BE0820F0952311F014
:101220000C94AE080C94B40811240C94F9080E9494
:10123000D60870F3959FC1F3950F50E0551F629F3C
:10124000F001729FBB27F00DB11D639FAA27F00D1F
:10125000B11DAA1F649F6627B00DA11D661F829F46
:101260002227B00DA11D621F739FB00DA11D621F2B
:10127000839FA00D611D221F749F3327A00D611D48
:10128000231F849F600D211D822F762F6A2F11242A
:101290009F5750409AF0F1F088234AF0EE0FFF1F5D
:1012A000BB1F661F771F881F91505040A9F79E3FB4
:1012B000510580F00C94AE080C94F9085F3FE4F3FC
:1012C000983ED4F3869577956795B795F795E7950A
:1012D0009F5FC1F7FE2B880F911D9695879597F913
:1012E00008950E948A08880B990B0895F894FFCFFF
:1012F000000000004C01AC00D9009E010A01E8008A
:10130000FC006E616E00696E66006F766600537455
:1013100061727420494275733250574D000D0A00B6
:10132000526F746174696F6E3A2000466F72776114
:0E1330007264733A200044657074683A2000BD
:00000001FF
